{
  "contractName": "Polls",
  "abi": [
    {
      "anonymous": false,
      "inputs": [
        {
          "indexed": false,
          "internalType": "uint256",
          "name": "_pollId",
          "type": "uint256"
        }
      ],
      "name": "PollCreated",
      "type": "event"
    },
    {
      "constant": false,
      "inputs": [
        {
          "internalType": "string",
          "name": "_question",
          "type": "string"
        },
        {
          "internalType": "bytes32[]",
          "name": "_options",
          "type": "bytes32[]"
        }
      ],
      "name": "createPoll",
      "outputs": [
        {
          "internalType": "uint256",
          "name": "",
          "type": "uint256"
        }
      ],
      "payable": false,
      "stateMutability": "nonpayable",
      "type": "function"
    },
    {
      "constant": false,
      "inputs": [
        {
          "internalType": "string",
          "name": "_question",
          "type": "string"
        },
        {
          "internalType": "bytes32[]",
          "name": "_options",
          "type": "bytes32[]"
        },
        {
          "internalType": "address[]",
          "name": "_voterlist",
          "type": "address[]"
        }
      ],
      "name": "createPrivatePoll",
      "outputs": [
        {
          "internalType": "uint256",
          "name": "",
          "type": "uint256"
        }
      ],
      "payable": false,
      "stateMutability": "nonpayable",
      "type": "function"
    },
    {
      "constant": true,
      "inputs": [
        {
          "internalType": "uint256",
          "name": "_pollId",
          "type": "uint256"
        }
      ],
      "name": "getPoll",
      "outputs": [
        {
          "internalType": "uint256",
          "name": "",
          "type": "uint256"
        },
        {
          "internalType": "string",
          "name": "",
          "type": "string"
        },
        {
          "internalType": "uint64[]",
          "name": "",
          "type": "uint64[]"
        },
        {
          "internalType": "bytes32[]",
          "name": "",
          "type": "bytes32[]"
        },
        {
          "internalType": "bool",
          "name": "",
          "type": "bool"
        },
        {
          "internalType": "address",
          "name": "",
          "type": "address"
        }
      ],
      "payable": false,
      "stateMutability": "view",
      "type": "function"
    },
    {
      "constant": true,
      "inputs": [
        {
          "internalType": "uint256",
          "name": "_pollId",
          "type": "uint256"
        }
      ],
      "name": "pvgetPoll",
      "outputs": [
        {
          "internalType": "uint256",
          "name": "",
          "type": "uint256"
        },
        {
          "internalType": "string",
          "name": "",
          "type": "string"
        },
        {
          "internalType": "uint64[]",
          "name": "",
          "type": "uint64[]"
        },
        {
          "internalType": "address[]",
          "name": "",
          "type": "address[]"
        },
        {
          "internalType": "bytes32[]",
          "name": "",
          "type": "bytes32[]"
        },
        {
          "internalType": "bool",
          "name": "",
          "type": "bool"
        },
        {
          "internalType": "address",
          "name": "",
          "type": "address"
        }
      ],
      "payable": false,
      "stateMutability": "view",
      "type": "function"
    },
    {
      "constant": false,
      "inputs": [
        {
          "internalType": "uint256",
          "name": "_pollId",
          "type": "uint256"
        }
      ],
      "name": "startstopVoting",
      "outputs": [],
      "payable": false,
      "stateMutability": "nonpayable",
      "type": "function"
    },
    {
      "constant": false,
      "inputs": [
        {
          "internalType": "uint256",
          "name": "_pollId",
          "type": "uint256"
        }
      ],
      "name": "pvstartstopVoting",
      "outputs": [],
      "payable": false,
      "stateMutability": "nonpayable",
      "type": "function"
    },
    {
      "constant": false,
      "inputs": [
        {
          "internalType": "uint256",
          "name": "_pollId",
          "type": "uint256"
        },
        {
          "internalType": "uint64",
          "name": "_vote",
          "type": "uint64"
        }
      ],
      "name": "vote",
      "outputs": [],
      "payable": false,
      "stateMutability": "nonpayable",
      "type": "function"
    },
    {
      "constant": true,
      "inputs": [
        {
          "internalType": "uint256",
          "name": "_pollId",
          "type": "uint256"
        },
        {
          "internalType": "address",
          "name": "voter",
          "type": "address"
        }
      ],
      "name": "isElegible",
      "outputs": [
        {
          "internalType": "bool",
          "name": "",
          "type": "bool"
        }
      ],
      "payable": false,
      "stateMutability": "view",
      "type": "function"
    },
    {
      "constant": false,
      "inputs": [
        {
          "internalType": "uint256",
          "name": "_pollId",
          "type": "uint256"
        },
        {
          "internalType": "uint64",
          "name": "_vote",
          "type": "uint64"
        }
      ],
      "name": "votePrvt",
      "outputs": [],
      "payable": false,
      "stateMutability": "nonpayable",
      "type": "function"
    },
    {
      "constant": true,
      "inputs": [
        {
          "internalType": "address",
          "name": "_id",
          "type": "address"
        }
      ],
      "name": "getVoter",
      "outputs": [
        {
          "internalType": "address",
          "name": "",
          "type": "address"
        },
        {
          "internalType": "uint256[]",
          "name": "",
          "type": "uint256[]"
        }
      ],
      "payable": false,
      "stateMutability": "view",
      "type": "function"
    },
    {
      "constant": true,
      "inputs": [],
      "name": "getTotalPolls",
      "outputs": [
        {
          "internalType": "uint256",
          "name": "",
          "type": "uint256"
        }
      ],
      "payable": false,
      "stateMutability": "view",
      "type": "function"
    },
    {
      "constant": true,
      "inputs": [],
      "name": "pvgetTotalPolls",
      "outputs": [
        {
          "internalType": "uint256",
          "name": "",
          "type": "uint256"
        }
      ],
      "payable": false,
      "stateMutability": "view",
      "type": "function"
    }
  ],
  "bytecode": "0x608060405234801561001057600080fd5b50612775806100206000396000f3fe608060405234801561001057600080fd5b50600436106100b35760003560e01c806367cc3f301161007157806367cc3f301461079e578063b2b768ba146107e0578063d4f50f981461080e578063e7a8d68a146108da578063ece71c9114610940578063f8f3de3a14610982576100b3565b8062f63722146100b8578063167315931461021b5780631a8cbcaa14610412578063231883581461058e5780633ef87d5414610752578063567ebc5f14610770575b600080fd5b610205600480360360408110156100ce57600080fd5b81019080803590602001906401000000008111156100eb57600080fd5b8201836020820111156100fd57600080fd5b8035906020019184600183028401116401000000008311171561011f57600080fd5b91908080601f016020809104026020016040519081016040528093929190818152602001838380828437600081840152601f19601f8201169050808301925050505050505091929192908035906020019064010000000081111561018257600080fd5b82018360208201111561019457600080fd5b803590602001918460208302840111640100000000831117156101b657600080fd5b919080806020026020016040519081016040528093929190818152602001838360200280828437600081840152601f19601f8201169050808301925050505050505091929192905050506109a0565b6040518082815260200191505060405180910390f35b6103fc6004803603606081101561023157600080fd5b810190808035906020019064010000000081111561024e57600080fd5b82018360208201111561026057600080fd5b8035906020019184600183028401116401000000008311171561028257600080fd5b91908080601f016020809104026020016040519081016040528093929190818152602001838380828437600081840152601f19601f820116905080830192505050505050509192919290803590602001906401000000008111156102e557600080fd5b8201836020820111156102f757600080fd5b8035906020019184602083028401116401000000008311171561031957600080fd5b919080806020026020016040519081016040528093929190818152602001838360200280828437600081840152601f19601f8201169050808301925050505050505091929192908035906020019064010000000081111561037957600080fd5b82018360208201111561038b57600080fd5b803590602001918460208302840111640100000000831117156103ad57600080fd5b919080806020026020016040519081016040528093929190818152602001838360200280828437600081840152601f19601f820116905080830192505050505050509192919290505050610c53565b6040518082815260200191505060405180910390f35b61043e6004803603602081101561042857600080fd5b8101908080359060200190929190505050610f2b565b60405180878152602001806020018060200180602001861515151581526020018573ffffffffffffffffffffffffffffffffffffffff1673ffffffffffffffffffffffffffffffffffffffff168152602001848103845289818151815260200191508051906020019080838360005b838110156104c85780820151818401526020810190506104ad565b50505050905090810190601f1680156104f55780820380516001836020036101000a031916815260200191505b50848103835288818151815260200191508051906020019060200280838360005b83811015610531578082015181840152602081019050610516565b50505050905001848103825287818151815260200191508051906020019060200280838360005b83811015610573578082015181840152602081019050610558565b50505050905001995050505050505050505060405180910390f35b6105ba600480360360208110156105a457600080fd5b8101908080359060200190929190505050611229565b6040518088815260200180602001806020018060200180602001871515151581526020018673ffffffffffffffffffffffffffffffffffffffff1673ffffffffffffffffffffffffffffffffffffffff16815260200185810385528b818151815260200191508051906020019080838360005b8381101561064857808201518184015260208101905061062d565b50505050905090810190601f1680156106755780820380516001836020036101000a031916815260200191505b5085810384528a818151815260200191508051906020019060200280838360005b838110156106b1578082015181840152602081019050610696565b50505050905001858103835289818151815260200191508051906020019060200280838360005b838110156106f35780820151818401526020810190506106d8565b50505050905001858103825288818151815260200191508051906020019060200280838360005b8381101561073557808201518184015260208101905061071a565b505050509050019b50505050505050505050505060405180910390f35b61075a6115d2565b6040518082815260200191505060405180910390f35b61079c6004803603602081101561078657600080fd5b81019080803590602001909291905050506115de565b005b6107de600480360360408110156107b457600080fd5b8101908080359060200190929190803567ffffffffffffffff16906020019092919050505061174e565b005b61080c600480360360208110156107f657600080fd5b8101908080359060200190929190505050611bc7565b005b6108506004803603602081101561082457600080fd5b81019080803573ffffffffffffffffffffffffffffffffffffffff169060200190929190505050611d37565b604051808373ffffffffffffffffffffffffffffffffffffffff1673ffffffffffffffffffffffffffffffffffffffff16815260200180602001828103825283818151815260200191508051906020019060200280838360005b838110156108c55780820151818401526020810190506108aa565b50505050905001935050505060405180910390f35b610926600480360360408110156108f057600080fd5b8101908080359060200190929190803573ffffffffffffffffffffffffffffffffffffffff169060200190929190505050611e3b565b604051808215151515815260200191505060405180910390f35b6109806004803603604081101561095657600080fd5b8101908080359060200190929190803567ffffffffffffffff169060200190929190505050611f99565b005b61098a612397565b6040518082815260200191505060405180910390f35b600080835111610a18576040517f08c379a000000000000000000000000000000000000000000000000000000000815260040180806020018281038252600e8152602001807f456d707479207175657374696f6e00000000000000000000000000000000000081525060200191505060405180910390fd5b6001825111610a8f576040517f08c379a000000000000000000000000000000000000000000000000000000000815260040180806020018281038252601b8152602001807f4174206c656173742032206f7074696f6e73207265717569726564000000000081525060200191505060405180910390fd5b600080805490509050610aa06123a4565b6040518060c001604052808381526020013373ffffffffffffffffffffffffffffffffffffffff1681526020016001151581526020018681526020018551604051908082528060200260200182016040528015610b0c5781602001602082028038833980820191505090505b508152602001858152509050600081908060018154018082558091505090600182039060005260206000209060050201600090919290919091506000820151816000015560208201518160010160006101000a81548173ffffffffffffffffffffffffffffffffffffffff021916908373ffffffffffffffffffffffffffffffffffffffff16021790555060408201518160010160146101000a81548160ff0219169083151502179055506060820151816002019080519060200190610bd39291906123f2565b506080820151816003019080519060200190610bf0929190612472565b5060a0820151816004019080519060200190610c0d92919061252e565b505050507fab0309b6731a34e8750174d3c2c9591a34a2bf0c1425a30b34122be08d050739826040518082815260200191505060405180910390a1819250505092915050565b600080845111610ccb576040517f08c379a000000000000000000000000000000000000000000000000000000000815260040180806020018281038252600e8152602001807f456d707479207175657374696f6e00000000000000000000000000000000000081525060200191505060405180910390fd5b6001835111610d42576040517f08c379a000000000000000000000000000000000000000000000000000000000815260040180806020018281038252601b8152602001807f4174206c656173742032206f7074696f6e73207265717569726564000000000081525060200191505060405180910390fd5b60006001805490509050610d5461257b565b6040518060e001604052808381526020013373ffffffffffffffffffffffffffffffffffffffff1681526020016001151581526020018781526020018581526020018651604051908082528060200260200182016040528015610dc65781602001602082028038833980820191505090505b508152602001868152509050600181908060018154018082558091505090600182039060005260206000209060060201600090919290919091506000820151816000015560208201518160010160006101000a81548173ffffffffffffffffffffffffffffffffffffffff021916908373ffffffffffffffffffffffffffffffffffffffff16021790555060408201518160010160146101000a81548160ff0219169083151502179055506060820151816002019080519060200190610e8d9291906123f2565b506080820151816003019080519060200190610eaa9291906125d0565b5060a0820151816004019080519060200190610ec7929190612472565b5060c0820151816005019080519060200190610ee492919061252e565b505050507fab0309b6731a34e8750174d3c2c9591a34a2bf0c1425a30b34122be08d050739826040518082815260200191505060405180910390a181925050509392505050565b6000606080606060008060008054905087108015610f4a575060008710155b610fbc576040517f08c379a000000000000000000000000000000000000000000000000000000000815260040180806020018281038252600d8152602001807f4e6f20706f6c6c20666f756e640000000000000000000000000000000000000081525060200191505060405180910390fd5b60008781548110610fc957fe5b90600052602060002090600502016000015460008881548110610fe857fe5b90600052602060002090600502016002016000898154811061100657fe5b906000526020600020906005020160030160008a8154811061102457fe5b906000526020600020906005020160040160008b8154811061104257fe5b906000526020600020906005020160010160149054906101000a900460ff1660008c8154811061106e57fe5b906000526020600020906005020160010160009054906101000a900473ffffffffffffffffffffffffffffffffffffffff16848054600181600116156101000203166002900480601f0160208091040260200160405190810160405280929190818152602001828054600181600116156101000203166002900480156111355780601f1061110a57610100808354040283529160200191611135565b820191906000526020600020905b81548152906001019060200180831161111857829003601f168201915b50505050509450838054806020026020016040519081016040528092919081815260200182805480156111bb57602002820191906000526020600020906000905b82829054906101000a900467ffffffffffffffff1667ffffffffffffffff16815260200190600801906020826007010492830192600103820291508084116111765790505b505050505093508280548060200260200160405190810160405280929190818152602001828054801561120d57602002820191906000526020600020905b8154815260200190600101908083116111f9575b5050505050925095509550955095509550955091939550919395565b600060608060608060008060018054905088108015611249575060008810155b6112bb576040517f08c379a000000000000000000000000000000000000000000000000000000000815260040180806020018281038252600d8152602001807f4e6f20706f6c6c20666f756e640000000000000000000000000000000000000081525060200191505060405180910390fd5b600188815481106112c857fe5b906000526020600020906006020160000154600189815481106112e757fe5b906000526020600020906006020160020160018a8154811061130557fe5b906000526020600020906006020160040160018b8154811061132357fe5b906000526020600020906006020160030160018c8154811061134157fe5b906000526020600020906006020160050160018d8154811061135f57fe5b906000526020600020906006020160010160149054906101000a900460ff1660018e8154811061138b57fe5b906000526020600020906006020160010160009054906101000a900473ffffffffffffffffffffffffffffffffffffffff16858054600181600116156101000203166002900480601f0160208091040260200160405190810160405280929190818152602001828054600181600116156101000203166002900480156114525780601f1061142757610100808354040283529160200191611452565b820191906000526020600020905b81548152906001019060200180831161143557829003601f168201915b50505050509550848054806020026020016040519081016040528092919081815260200182805480156114d857602002820191906000526020600020906000905b82829054906101000a900467ffffffffffffffff1667ffffffffffffffff16815260200190600801906020826007010492830192600103820291508084116114935790505b505050505094508380548060200260200160405190810160405280929190818152602001828054801561156057602002820191906000526020600020905b8160009054906101000a900473ffffffffffffffffffffffffffffffffffffffff1673ffffffffffffffffffffffffffffffffffffffff1681526020019060010190808311611516575b50505050509350828054806020026020016040519081016040528092919081815260200182805480156115b257602002820191906000526020600020905b81548152602001906001019080831161159e575b505050505092509650965096509650965096509650919395979092949650565b60008080549050905090565b3373ffffffffffffffffffffffffffffffffffffffff166001828154811061160257fe5b906000526020600020906006020160010160009054906101000a900473ffffffffffffffffffffffffffffffffffffffff1673ffffffffffffffffffffffffffffffffffffffff16146116a0576040517f08c379a000000000000000000000000000000000000000000000000000000000815260040180806020018281038252602281526020018061271f6022913960400191505060405180910390fd5b60001515600182815481106116b157fe5b906000526020600020906006020160010160149054906101000a900460ff16151514156117135760018082815481106116e657fe5b906000526020600020906006020160010160146101000a81548160ff02191690831515021790555061174b565b60006001828154811061172257fe5b906000526020600020906006020160010160146101000a81548160ff0219169083151502179055505b50565b6117588233611e3b565b6117ca576040517f08c379a000000000000000000000000000000000000000000000000000000000815260040180806020018281038252600c8152602001807f4e6f7420656c656769626c65000000000000000000000000000000000000000081525060200191505060405180910390fd5b6001805490508210611844576040517f08c379a00000000000000000000000000000000000000000000000000000000081526004018080602001828103825260138152602001807f506f6c6c20646f6573206e6f742065786973740000000000000000000000000081525060200191505060405180910390fd5b600115156001838154811061185557fe5b906000526020600020906006020160010160149054906101000a900460ff161515146118e9576040517f08c379a00000000000000000000000000000000000000000000000000000000081526004018080602001828103825260108152602001807f766f74696e6720697320636c6f7365640000000000000000000000000000000081525060200191505060405180910390fd5b600182815481106118f657fe5b9060005260206000209060060201600501805490508167ffffffffffffffff1610611989576040517f08c379a000000000000000000000000000000000000000000000000000000000815260040180806020018281038252600c8152602001807f496e76616c696420766f7465000000000000000000000000000000000000000081525060200191505060405180910390fd5b60001515600360003373ffffffffffffffffffffffffffffffffffffffff1673ffffffffffffffffffffffffffffffffffffffff168152602001908152602001600020600201600084815260200190815260200160002060009054906101000a900460ff16151514611a63576040517f08c379a00000000000000000000000000000000000000000000000000000000081526004018080602001828103825260118152602001807f596f7520616c726561647920766f74656400000000000000000000000000000081525060200191505060405180910390fd5b6001808381548110611a7157fe5b90600052602060002090600602016004018267ffffffffffffffff1681548110611a9757fe5b90600052602060002090600491828204019190066008028282829054906101000a900467ffffffffffffffff160192506101000a81548167ffffffffffffffff021916908367ffffffffffffffff160217905550600360003373ffffffffffffffffffffffffffffffffffffffff1673ffffffffffffffffffffffffffffffffffffffff1681526020019081526020016000206001018290806001815401808255809150509060018203906000526020600020016000909192909190915055506001600360003373ffffffffffffffffffffffffffffffffffffffff1673ffffffffffffffffffffffffffffffffffffffff168152602001908152602001600020600201600084815260200190815260200160002060006101000a81548160ff0219169083151502179055505050565b3373ffffffffffffffffffffffffffffffffffffffff1660008281548110611beb57fe5b906000526020600020906005020160010160009054906101000a900473ffffffffffffffffffffffffffffffffffffffff1673ffffffffffffffffffffffffffffffffffffffff1614611c89576040517f08c379a000000000000000000000000000000000000000000000000000000000815260040180806020018281038252602281526020018061271f6022913960400191505060405180910390fd5b6000151560008281548110611c9a57fe5b906000526020600020906005020160010160149054906101000a900460ff1615151415611cfd57600160008281548110611cd057fe5b906000526020600020906005020160010160146101000a81548160ff021916908315150217905550611d34565b6000808281548110611d0b57fe5b906000526020600020906005020160010160146101000a81548160ff0219169083151502179055505b50565b60006060600260008473ffffffffffffffffffffffffffffffffffffffff1673ffffffffffffffffffffffffffffffffffffffff16815260200190815260200160002060000160009054906101000a900473ffffffffffffffffffffffffffffffffffffffff16600260008573ffffffffffffffffffffffffffffffffffffffff1673ffffffffffffffffffffffffffffffffffffffff16815260200190815260200160002060010180805480602002602001604051908101604052809291908181526020018280548015611e2b57602002820191906000526020600020905b815481526020019060010190808311611e17575b5050505050905091509150915091565b60006001805490508310611eb7576040517f08c379a00000000000000000000000000000000000000000000000000000000081526004018080602001828103825260138152602001807f506f6c6c20646f6573206e6f742065786973740000000000000000000000000081525060200191505060405180910390fd5b600080905060008090505b60018581548110611ecf57fe5b906000526020600020906006020160030180549050811015611f8d5760018581548110611ef857fe5b90600052602060002090600602016003018181548110611f1457fe5b9060005260206000200160009054906101000a900473ffffffffffffffffffffffffffffffffffffffff1673ffffffffffffffffffffffffffffffffffffffff168473ffffffffffffffffffffffffffffffffffffffff161415611f8057600191508192505050611f93565b8080600101915050611ec2565b50809150505b92915050565b6000805490508210612013576040517f08c379a00000000000000000000000000000000000000000000000000000000081526004018080602001828103825260138152602001807f506f6c6c20646f6573206e6f742065786973740000000000000000000000000081525060200191505060405180910390fd5b600115156000838154811061202457fe5b906000526020600020906005020160010160149054906101000a900460ff161515146120b8576040517f08c379a00000000000000000000000000000000000000000000000000000000081526004018080602001828103825260108152602001807f766f74696e6720697320636c6f7365640000000000000000000000000000000081525060200191505060405180910390fd5b600082815481106120c557fe5b9060005260206000209060050201600401805490508167ffffffffffffffff1610612158576040517f08c379a000000000000000000000000000000000000000000000000000000000815260040180806020018281038252600c8152602001807f496e76616c696420766f7465000000000000000000000000000000000000000081525060200191505060405180910390fd5b60001515600260003373ffffffffffffffffffffffffffffffffffffffff1673ffffffffffffffffffffffffffffffffffffffff168152602001908152602001600020600201600084815260200190815260200160002060009054906101000a900460ff16151514612232576040517f08c379a00000000000000000000000000000000000000000000000000000000081526004018080602001828103825260118152602001807f596f7520616c726561647920766f74656400000000000000000000000000000081525060200191505060405180910390fd5b60016000838154811061224157fe5b90600052602060002090600502016003018267ffffffffffffffff168154811061226757fe5b90600052602060002090600491828204019190066008028282829054906101000a900467ffffffffffffffff160192506101000a81548167ffffffffffffffff021916908367ffffffffffffffff160217905550600260003373ffffffffffffffffffffffffffffffffffffffff1673ffffffffffffffffffffffffffffffffffffffff1681526020019081526020016000206001018290806001815401808255809150509060018203906000526020600020016000909192909190915055506001600260003373ffffffffffffffffffffffffffffffffffffffff1673ffffffffffffffffffffffffffffffffffffffff168152602001908152602001600020600201600084815260200190815260200160002060006101000a81548160ff0219169083151502179055505050565b6000600180549050905090565b6040518060c0016040528060008152602001600073ffffffffffffffffffffffffffffffffffffffff1681526020016000151581526020016060815260200160608152602001606081525090565b828054600181600116156101000203166002900490600052602060002090601f016020900481019282601f1061243357805160ff1916838001178555612461565b82800160010185558215612461579182015b82811115612460578251825591602001919060010190612445565b5b50905061246e919061265a565b5090565b8280548282559060005260206000209060030160049004810192821561251d5791602002820160005b838211156124e757835183826101000a81548167ffffffffffffffff021916908367ffffffffffffffff160217905550926020019260080160208160070104928301926001030261249b565b801561251b5782816101000a81549067ffffffffffffffff02191690556008016020816007010492830192600103026124e7565b505b50905061252a919061267f565b5090565b82805482825590600052602060002090810192821561256a579160200282015b8281111561256957825182559160200191906001019061254e565b5b50905061257791906126b6565b5090565b6040518060e0016040528060008152602001600073ffffffffffffffffffffffffffffffffffffffff168152602001600015158152602001606081526020016060815260200160608152602001606081525090565b828054828255906000526020600020908101928215612649579160200282015b828111156126485782518260006101000a81548173ffffffffffffffffffffffffffffffffffffffff021916908373ffffffffffffffffffffffffffffffffffffffff160217905550916020019190600101906125f0565b5b50905061265691906126db565b5090565b61267c91905b80821115612678576000816000905550600101612660565b5090565b90565b6126b391905b808211156126af57600081816101000a81549067ffffffffffffffff021916905550600101612685565b5090565b90565b6126d891905b808211156126d45760008160009055506001016126bc565b5090565b90565b61271b91905b8082111561271757600081816101000a81549073ffffffffffffffffffffffffffffffffffffffff0219169055506001016126e1565b5090565b9056fe596f7520617265206e6f7420612063726561746f72206f66207468697320706f6c6ca265627a7a723158201e7266cced1e766ab8b6fa34fbeac41ff5e5d290127782f4f9dfb183101871a264736f6c63430005100032",
  "source": "// SPDX-License-Identifier: MIT\r\npragma solidity >=0.4.22 <0.8.0;\r\n\r\ncontract Polls {\r\n    struct Poll {\r\n        uint256 id;\r\n        address creator;\r\n        bool ison;\r\n        string question;\r\n        uint64[] votes;\r\n        bytes32[] options;\r\n    }\r\n\r\n    struct PrivatePoll {\r\n        uint256 id;\r\n        address creator;\r\n        bool ison;\r\n        string question;\r\n        address[] voterlist;\r\n        uint64[] votes;\r\n        bytes32[] options;\r\n    }\r\n    struct Voter {\r\n        address id;\r\n        uint256[] votedIds;\r\n        mapping(uint256 => bool) votedMap;\r\n    }\r\n\r\n    Poll[] private polls;\r\n    PrivatePoll[] private pvpolls;\r\n\r\n    mapping(address => Voter) private voters;\r\n    mapping(address => Voter) private pvvoters;\r\n\r\n    event PollCreated(uint256 _pollId);\r\n\r\n    function createPoll(string memory _question, bytes32[] memory _options)\r\n        public\r\n        returns (uint256)\r\n    {\r\n        require(bytes(_question).length > 0, \"Empty question\");\r\n        require(_options.length > 1, \"At least 2 options required\");\r\n\r\n        uint256 pollId = polls.length;\r\n\r\n        Poll memory newPoll =\r\n            Poll({\r\n                id: pollId,\r\n                creator: msg.sender,\r\n                question: _question,\r\n                ison: true,\r\n                options: _options,\r\n                votes: new uint64[](_options.length)\r\n            });\r\n\r\n        polls.push(newPoll);\r\n\r\n        emit PollCreated(pollId);\r\n\r\n        return pollId;\r\n    }\r\n\r\n    function createPrivatePoll(\r\n        string memory _question,\r\n        bytes32[] memory _options,\r\n        address[] memory _voterlist\r\n    ) public returns (uint256) {\r\n        require(bytes(_question).length > 0, \"Empty question\");\r\n        require(_options.length > 1, \"At least 2 options required\");\r\n\r\n        uint256 pollId = pvpolls.length;\r\n\r\n        PrivatePoll memory newPoll =\r\n            PrivatePoll({\r\n                id: pollId,\r\n                creator: msg.sender,\r\n                question: _question,\r\n                ison: true,\r\n                voterlist: _voterlist,\r\n                options: _options,\r\n                votes: new uint64[](_options.length)\r\n            });\r\n\r\n        pvpolls.push(newPoll);\r\n\r\n        emit PollCreated(pollId);\r\n\r\n        return pollId;\r\n    }\r\n\r\n    function getPoll(uint256 _pollId)\r\n        external\r\n        view\r\n        returns (\r\n            uint256,\r\n            string memory,\r\n            uint64[] memory,\r\n            bytes32[] memory,\r\n            bool,\r\n            address\r\n        )\r\n    {\r\n        require(_pollId < polls.length && _pollId >= 0, \"No poll found\");\r\n        return (\r\n            polls[_pollId].id,\r\n            polls[_pollId].question,\r\n            polls[_pollId].votes,\r\n            polls[_pollId].options,\r\n            polls[_pollId].ison,\r\n            polls[_pollId].creator\r\n        );\r\n    }\r\n\r\n    function pvgetPoll(uint256 _pollId)\r\n        external\r\n        view\r\n        returns (\r\n            uint256,\r\n            string memory,\r\n            uint64[] memory,\r\n            address[] memory,\r\n            bytes32[] memory,\r\n            bool,\r\n            address\r\n        )\r\n    {\r\n        require(_pollId < pvpolls.length && _pollId >= 0, \"No poll found\");\r\n        return (\r\n            pvpolls[_pollId].id,\r\n            pvpolls[_pollId].question,\r\n            pvpolls[_pollId].votes,\r\n            pvpolls[_pollId].voterlist,\r\n            pvpolls[_pollId].options,\r\n            pvpolls[_pollId].ison,\r\n            pvpolls[_pollId].creator\r\n        );\r\n    }\r\n\r\n    function startstopVoting(uint256 _pollId) external {\r\n        require(\r\n            polls[_pollId].creator == msg.sender,\r\n            \"You are not a creator of this poll\"\r\n        );\r\n        if (polls[_pollId].ison == false) {\r\n            polls[_pollId].ison = true;\r\n        } else {\r\n            polls[_pollId].ison = false;\r\n        }\r\n    }\r\n\r\n    function pvstartstopVoting(uint256 _pollId) external {\r\n        require(\r\n            pvpolls[_pollId].creator == msg.sender,\r\n            \"You are not a creator of this poll\"\r\n        );\r\n        if (pvpolls[_pollId].ison == false) {\r\n            pvpolls[_pollId].ison = true;\r\n        } else {\r\n            pvpolls[_pollId].ison = false;\r\n        }\r\n    }\r\n\r\n    function vote(uint256 _pollId, uint64 _vote) external {\r\n        require(_pollId < polls.length, \"Poll does not exist\");\r\n        require(polls[_pollId].ison == true, \"voting is closed\");\r\n        require(_vote < polls[_pollId].options.length, \"Invalid vote\");\r\n\r\n        require(\r\n            voters[msg.sender].votedMap[_pollId] == false,\r\n            \"You already voted\"\r\n        );\r\n\r\n        polls[_pollId].votes[_vote] += 1;\r\n\r\n        voters[msg.sender].votedIds.push(_pollId);\r\n        voters[msg.sender].votedMap[_pollId] = true;\r\n    }\r\n\r\n    function isElegible(uint256 _pollId, address voter)\r\n        public\r\n        view\r\n        returns (bool)\r\n    {\r\n        require(_pollId < pvpolls.length, \"Poll does not exist\");\r\n        bool elegible = false;\r\n\r\n        for (uint256 i = 0; i < pvpolls[_pollId].voterlist.length; i++) {\r\n            if (voter == pvpolls[_pollId].voterlist[i]) {\r\n                elegible = true;\r\n                return elegible;\r\n            }\r\n        }\r\n\r\n        return elegible;\r\n    }\r\n\r\n    function votePrvt(uint256 _pollId, uint64 _vote) external {\r\n        require(isElegible(_pollId, msg.sender), \"Not elegible\");\r\n        require(_pollId < pvpolls.length, \"Poll does not exist\");\r\n        require(pvpolls[_pollId].ison == true, \"voting is closed\");\r\n        require(_vote < pvpolls[_pollId].options.length, \"Invalid vote\");\r\n\r\n        require(\r\n            pvvoters[msg.sender].votedMap[_pollId] == false,\r\n            \"You already voted\"\r\n        );\r\n\r\n        pvpolls[_pollId].votes[_vote] += 1;\r\n\r\n        pvvoters[msg.sender].votedIds.push(_pollId);\r\n        pvvoters[msg.sender].votedMap[_pollId] = true;\r\n    }\r\n\r\n    function getVoter(address _id)\r\n        external\r\n        view\r\n        returns (address, uint256[] memory)\r\n    {\r\n        return (voters[_id].id, voters[_id].votedIds);\r\n    }\r\n\r\n    function getTotalPolls() external view returns (uint256) {\r\n        return polls.length;\r\n    }\r\n\r\n    function pvgetTotalPolls() external view returns (uint256) {\r\n        return pvpolls.length;\r\n    }\r\n}\r\n",
  "sourcePath": "C:/xampp/htdocs/pollcreator/contracts/Polls.sol",
  "compiler": {
    "name": "solc",
    "version": "0.5.16+commit.9c3226ce.Emscripten.clang"
  },
  "schemaVersion": "3.3.2",
  "updatedAt": "2021-04-22T08:36:11.158Z",
  "networkType": "ethereum",
  "devdoc": {
    "methods": {}
  },
  "userdoc": {
    "methods": {}
  }
}