{
  "contractName": "PublicPoll",
  "abi": [
    {
      "anonymous": false,
      "inputs": [
        {
          "indexed": false,
          "internalType": "uint256",
          "name": "_pollId",
          "type": "uint256"
        }
      ],
      "name": "PollCreated",
      "type": "event"
    },
    {
      "constant": false,
      "inputs": [
        {
          "internalType": "string",
          "name": "_question",
          "type": "string"
        },
        {
          "internalType": "bytes32[]",
          "name": "_options",
          "type": "bytes32[]"
        }
      ],
      "name": "createPoll",
      "outputs": [
        {
          "internalType": "uint256",
          "name": "",
          "type": "uint256"
        }
      ],
      "payable": false,
      "stateMutability": "nonpayable",
      "type": "function"
    },
    {
      "constant": true,
      "inputs": [
        {
          "internalType": "uint256",
          "name": "_pollId",
          "type": "uint256"
        }
      ],
      "name": "getPoll",
      "outputs": [
        {
          "internalType": "uint256",
          "name": "",
          "type": "uint256"
        },
        {
          "internalType": "string",
          "name": "",
          "type": "string"
        },
        {
          "internalType": "uint64[]",
          "name": "",
          "type": "uint64[]"
        },
        {
          "internalType": "bytes32[]",
          "name": "",
          "type": "bytes32[]"
        },
        {
          "internalType": "bool",
          "name": "",
          "type": "bool"
        },
        {
          "internalType": "address",
          "name": "",
          "type": "address"
        }
      ],
      "payable": false,
      "stateMutability": "view",
      "type": "function"
    },
    {
      "constant": false,
      "inputs": [
        {
          "internalType": "uint256",
          "name": "_pollId",
          "type": "uint256"
        }
      ],
      "name": "startstopVoting",
      "outputs": [],
      "payable": false,
      "stateMutability": "nonpayable",
      "type": "function"
    },
    {
      "constant": false,
      "inputs": [
        {
          "internalType": "uint256",
          "name": "_pollId",
          "type": "uint256"
        },
        {
          "internalType": "uint64",
          "name": "_vote",
          "type": "uint64"
        }
      ],
      "name": "vote",
      "outputs": [],
      "payable": false,
      "stateMutability": "nonpayable",
      "type": "function"
    },
    {
      "constant": true,
      "inputs": [
        {
          "internalType": "address",
          "name": "_id",
          "type": "address"
        }
      ],
      "name": "getVoter",
      "outputs": [
        {
          "internalType": "address",
          "name": "",
          "type": "address"
        },
        {
          "internalType": "uint256[]",
          "name": "",
          "type": "uint256[]"
        }
      ],
      "payable": false,
      "stateMutability": "view",
      "type": "function"
    },
    {
      "constant": true,
      "inputs": [],
      "name": "getTotalPolls",
      "outputs": [
        {
          "internalType": "uint256",
          "name": "",
          "type": "uint256"
        }
      ],
      "payable": false,
      "stateMutability": "view",
      "type": "function"
    }
  ],
  "bytecode": "0x608060405234801561001057600080fd5b5061137c806100206000396000f3fe608060405234801561001057600080fd5b50600436106100615760003560e01c8062f63722146100665780631a8cbcaa146101c95780633ef87d5414610345578063b2b768ba14610363578063d4f50f9814610391578063ece71c911461045d575b600080fd5b6101b36004803603604081101561007c57600080fd5b810190808035906020019064010000000081111561009957600080fd5b8201836020820111156100ab57600080fd5b803590602001918460018302840111640100000000831117156100cd57600080fd5b91908080601f016020809104026020016040519081016040528093929190818152602001838380828437600081840152601f19601f8201169050808301925050505050505091929192908035906020019064010000000081111561013057600080fd5b82018360208201111561014257600080fd5b8035906020019184602083028401116401000000008311171561016457600080fd5b919080806020026020016040519081016040528093929190818152602001838360200280828437600081840152601f19601f82011690508083019250505050505050919291929050505061049f565b6040518082815260200191505060405180910390f35b6101f5600480360360208110156101df57600080fd5b8101908080359060200190929190505050610752565b60405180878152602001806020018060200180602001861515151581526020018573ffffffffffffffffffffffffffffffffffffffff1673ffffffffffffffffffffffffffffffffffffffff168152602001848103845289818151815260200191508051906020019080838360005b8381101561027f578082015181840152602081019050610264565b50505050905090810190601f1680156102ac5780820380516001836020036101000a031916815260200191505b50848103835288818151815260200191508051906020019060200280838360005b838110156102e85780820151818401526020810190506102cd565b50505050905001848103825287818151815260200191508051906020019060200280838360005b8381101561032a57808201518184015260208101905061030f565b50505050905001995050505050505050505060405180910390f35b61034d610a50565b6040518082815260200191505060405180910390f35b61038f6004803603602081101561037957600080fd5b8101908080359060200190929190505050610a5c565b005b6103d3600480360360208110156103a757600080fd5b81019080803573ffffffffffffffffffffffffffffffffffffffff169060200190929190505050610bcc565b604051808373ffffffffffffffffffffffffffffffffffffffff1673ffffffffffffffffffffffffffffffffffffffff16815260200180602001828103825283818151815260200191508051906020019060200280838360005b8381101561044857808201518184015260208101905061042d565b50505050905001935050505060405180910390f35b61049d6004803603604081101561047357600080fd5b8101908080359060200190929190803567ffffffffffffffff169060200190929190505050610cd0565b005b600080835111610517576040517f08c379a000000000000000000000000000000000000000000000000000000000815260040180806020018281038252600e8152602001807f456d707479207175657374696f6e00000000000000000000000000000000000081525060200191505060405180910390fd5b600182511161058e576040517f08c379a000000000000000000000000000000000000000000000000000000000815260040180806020018281038252601b8152602001807f4174206c656173742032206f7074696f6e73207265717569726564000000000081525060200191505060405180910390fd5b60008080549050905061059f6110cd565b6040518060c001604052808381526020013373ffffffffffffffffffffffffffffffffffffffff168152602001600115158152602001868152602001855160405190808252806020026020018201604052801561060b5781602001602082028038833980820191505090505b508152602001858152509050600081908060018154018082558091505090600182039060005260206000209060050201600090919290919091506000820151816000015560208201518160010160006101000a81548173ffffffffffffffffffffffffffffffffffffffff021916908373ffffffffffffffffffffffffffffffffffffffff16021790555060408201518160010160146101000a81548160ff02191690831515021790555060608201518160020190805190602001906106d292919061111b565b5060808201518160030190805190602001906106ef92919061119b565b5060a082015181600401908051906020019061070c929190611257565b505050507fab0309b6731a34e8750174d3c2c9591a34a2bf0c1425a30b34122be08d050739826040518082815260200191505060405180910390a1819250505092915050565b6000606080606060008060008054905087108015610771575060008710155b6107e3576040517f08c379a000000000000000000000000000000000000000000000000000000000815260040180806020018281038252600d8152602001807f4e6f20706f6c6c20666f756e640000000000000000000000000000000000000081525060200191505060405180910390fd5b600087815481106107f057fe5b9060005260206000209060050201600001546000888154811061080f57fe5b90600052602060002090600502016002016000898154811061082d57fe5b906000526020600020906005020160030160008a8154811061084b57fe5b906000526020600020906005020160040160008b8154811061086957fe5b906000526020600020906005020160010160149054906101000a900460ff1660008c8154811061089557fe5b906000526020600020906005020160010160009054906101000a900473ffffffffffffffffffffffffffffffffffffffff16848054600181600116156101000203166002900480601f01602080910402602001604051908101604052809291908181526020018280546001816001161561010002031660029004801561095c5780601f106109315761010080835404028352916020019161095c565b820191906000526020600020905b81548152906001019060200180831161093f57829003601f168201915b50505050509450838054806020026020016040519081016040528092919081815260200182805480156109e257602002820191906000526020600020906000905b82829054906101000a900467ffffffffffffffff1667ffffffffffffffff168152602001906008019060208260070104928301926001038202915080841161099d5790505b5050505050935082805480602002602001604051908101604052809291908181526020018280548015610a3457602002820191906000526020600020905b815481526020019060010190808311610a20575b5050505050925095509550955095509550955091939550919395565b60008080549050905090565b3373ffffffffffffffffffffffffffffffffffffffff1660008281548110610a8057fe5b906000526020600020906005020160010160009054906101000a900473ffffffffffffffffffffffffffffffffffffffff1673ffffffffffffffffffffffffffffffffffffffff1614610b1e576040517f08c379a00000000000000000000000000000000000000000000000000000000081526004018080602001828103825260228152602001806113266022913960400191505060405180910390fd5b6000151560008281548110610b2f57fe5b906000526020600020906005020160010160149054906101000a900460ff1615151415610b9257600160008281548110610b6557fe5b906000526020600020906005020160010160146101000a81548160ff021916908315150217905550610bc9565b6000808281548110610ba057fe5b906000526020600020906005020160010160146101000a81548160ff0219169083151502179055505b50565b60006060600160008473ffffffffffffffffffffffffffffffffffffffff1673ffffffffffffffffffffffffffffffffffffffff16815260200190815260200160002060000160009054906101000a900473ffffffffffffffffffffffffffffffffffffffff16600160008573ffffffffffffffffffffffffffffffffffffffff1673ffffffffffffffffffffffffffffffffffffffff16815260200190815260200160002060010180805480602002602001604051908101604052809291908181526020018280548015610cc057602002820191906000526020600020905b815481526020019060010190808311610cac575b5050505050905091509150915091565b6000805490508210610d4a576040517f08c379a00000000000000000000000000000000000000000000000000000000081526004018080602001828103825260138152602001807f506f6c6c20646f6573206e6f742065786973740000000000000000000000000081525060200191505060405180910390fd5b6001151560008381548110610d5b57fe5b906000526020600020906005020160010160149054906101000a900460ff16151514610def576040517f08c379a00000000000000000000000000000000000000000000000000000000081526004018080602001828103825260108152602001807f766f74696e6720697320636c6f7365640000000000000000000000000000000081525060200191505060405180910390fd5b60008281548110610dfc57fe5b9060005260206000209060050201600401805490508167ffffffffffffffff1610610e8f576040517f08c379a000000000000000000000000000000000000000000000000000000000815260040180806020018281038252600c8152602001807f496e76616c696420766f7465000000000000000000000000000000000000000081525060200191505060405180910390fd5b60001515600160003373ffffffffffffffffffffffffffffffffffffffff1673ffffffffffffffffffffffffffffffffffffffff168152602001908152602001600020600201600084815260200190815260200160002060009054906101000a900460ff16151514610f69576040517f08c379a00000000000000000000000000000000000000000000000000000000081526004018080602001828103825260118152602001807f596f7520616c726561647920766f74656400000000000000000000000000000081525060200191505060405180910390fd5b600160008381548110610f7857fe5b90600052602060002090600502016003018267ffffffffffffffff1681548110610f9e57fe5b90600052602060002090600491828204019190066008028282829054906101000a900467ffffffffffffffff160192506101000a81548167ffffffffffffffff021916908367ffffffffffffffff160217905550600160003373ffffffffffffffffffffffffffffffffffffffff1673ffffffffffffffffffffffffffffffffffffffff16815260200190815260200160002060010182908060018154018082558091505090600182039060005260206000200160009091929091909150555060018060003373ffffffffffffffffffffffffffffffffffffffff1673ffffffffffffffffffffffffffffffffffffffff168152602001908152602001600020600201600084815260200190815260200160002060006101000a81548160ff0219169083151502179055505050565b6040518060c0016040528060008152602001600073ffffffffffffffffffffffffffffffffffffffff1681526020016000151581526020016060815260200160608152602001606081525090565b828054600181600116156101000203166002900490600052602060002090601f016020900481019282601f1061115c57805160ff191683800117855561118a565b8280016001018555821561118a579182015b8281111561118957825182559160200191906001019061116e565b5b50905061119791906112a4565b5090565b828054828255906000526020600020906003016004900481019282156112465791602002820160005b8382111561121057835183826101000a81548167ffffffffffffffff021916908367ffffffffffffffff16021790555092602001926008016020816007010492830192600103026111c4565b80156112445782816101000a81549067ffffffffffffffff0219169055600801602081600701049283019260010302611210565b505b50905061125391906112c9565b5090565b828054828255906000526020600020908101928215611293579160200282015b82811115611292578251825591602001919060010190611277565b5b5090506112a09190611300565b5090565b6112c691905b808211156112c25760008160009055506001016112aa565b5090565b90565b6112fd91905b808211156112f957600081816101000a81549067ffffffffffffffff0219169055506001016112cf565b5090565b90565b61132291905b8082111561131e576000816000905550600101611306565b5090565b9056fe596f7520617265206e6f7420612063726561746f72206f66207468697320706f6c6ca265627a7a72315820cfbd353fd28915af25cb8bc98dd183b43051b207bc89c78376daeeb4c176cdf864736f6c63430005100032",
  "source": "// SPDX-License-Identifier: MIT\r\npragma solidity >=0.4.22 <0.8.0;\r\n\r\ncontract PublicPoll {\r\n    struct Poll {\r\n        uint256 id;\r\n        address creator;\r\n        bool ison;\r\n        string question;\r\n        uint64[] votes;\r\n        bytes32[] options;\r\n    }\r\n\r\n    struct Voter {\r\n        address id;\r\n        uint256[] votedIds;\r\n        mapping(uint256 => bool) votedMap;\r\n    }\r\n\r\n    Poll[] private polls;\r\n    mapping(address => Voter) private voters;\r\n\r\n    event PollCreated(uint256 _pollId);\r\n\r\n    function createPoll(string memory _question, bytes32[] memory _options)\r\n        public\r\n        returns (uint256)\r\n    {\r\n        require(bytes(_question).length > 0, \"Empty question\");\r\n        require(_options.length > 1, \"At least 2 options required\");\r\n\r\n        uint256 pollId = polls.length;\r\n\r\n        Poll memory newPoll =\r\n            Poll({\r\n                id: pollId,\r\n                creator: msg.sender,\r\n                question: _question,\r\n                ison: true,\r\n                options: _options,\r\n                votes: new uint64[](_options.length)\r\n            });\r\n\r\n        polls.push(newPoll);\r\n\r\n        emit PollCreated(pollId);\r\n\r\n        return pollId;\r\n    }\r\n\r\n    function getPoll(uint256 _pollId)\r\n        external\r\n        view\r\n        returns (\r\n            uint256,\r\n            string memory,\r\n            uint64[] memory,\r\n            bytes32[] memory,\r\n            bool,\r\n            address\r\n        )\r\n    {\r\n        require(_pollId < polls.length && _pollId >= 0, \"No poll found\");\r\n        return (\r\n            polls[_pollId].id,\r\n            polls[_pollId].question,\r\n            polls[_pollId].votes,\r\n            polls[_pollId].options,\r\n            polls[_pollId].ison,\r\n            polls[_pollId].creator\r\n        );\r\n    }\r\n\r\n    function startstopVoting(uint256 _pollId) external {\r\n        require(\r\n            polls[_pollId].creator == msg.sender,\r\n            \"You are not a creator of this poll\"\r\n        );\r\n        if (polls[_pollId].ison == false) {\r\n            polls[_pollId].ison = true;\r\n        } else {\r\n            polls[_pollId].ison = false;\r\n        }\r\n    }\r\n\r\n    function vote(uint256 _pollId, uint64 _vote) external {\r\n        require(_pollId < polls.length, \"Poll does not exist\");\r\n        require(polls[_pollId].ison == true, \"voting is closed\");\r\n        require(_vote < polls[_pollId].options.length, \"Invalid vote\");\r\n\r\n        require(\r\n            voters[msg.sender].votedMap[_pollId] == false,\r\n            \"You already voted\"\r\n        );\r\n\r\n        polls[_pollId].votes[_vote] += 1;\r\n\r\n        voters[msg.sender].votedIds.push(_pollId);\r\n        voters[msg.sender].votedMap[_pollId] = true;\r\n    }\r\n\r\n    function getVoter(address _id)\r\n        external\r\n        view\r\n        returns (address, uint256[] memory)\r\n    {\r\n        return (voters[_id].id, voters[_id].votedIds);\r\n    }\r\n\r\n    function getTotalPolls() external view returns (uint256) {\r\n        return polls.length;\r\n    }\r\n}\r\n",
  "sourcePath": "C:/xampp/htdocs/pollcreator/contracts/PublicPoll.sol",
  "compiler": {
    "name": "solc",
    "version": "0.5.16+commit.9c3226ce.Emscripten.clang"
  },
  "schemaVersion": "3.3.2",
  "updatedAt": "2021-04-22T08:35:56.237Z",
  "devdoc": {
    "methods": {}
  },
  "userdoc": {
    "methods": {}
  }
}